{
  "_format": "hh-sol-artifact-1",
  "contractName": "DeviceActivationAndVerification",
  "sourceName": "contracts/DeviceActivationAndVerification.sol",
  "abi": [
    {
      "inputs": [
        {
          "internalType": "contract DeviceAdditionInterface",
          "name": "_deviceAdditionContractAddress",
          "type": "address"
        }
      ],
      "stateMutability": "nonpayable",
      "type": "constructor"
    },
    {
      "inputs": [
        {
          "internalType": "string",
          "name": "_brand",
          "type": "string"
        },
        {
          "internalType": "string",
          "name": "_model",
          "type": "string"
        },
        {
          "internalType": "uint256",
          "name": "_imeiNumber",
          "type": "uint256"
        },
        {
          "internalType": "bytes32",
          "name": "_seedPhrase",
          "type": "bytes32"
        }
      ],
      "name": "activateDevice",
      "outputs": [],
      "stateMutability": "nonpayable",
      "type": "function"
    },
    {
      "inputs": [
        {
          "internalType": "uint256",
          "name": "_imeiNumber",
          "type": "uint256"
        }
      ],
      "name": "isVerified",
      "outputs": [
        {
          "internalType": "bool",
          "name": "",
          "type": "bool"
        }
      ],
      "stateMutability": "view",
      "type": "function"
    }
  ],
  "bytecode": "0x608060405234801561001057600080fd5b506040516108f13803806108f1833981810160405281019061003291906100ed565b806000806101000a81548173ffffffffffffffffffffffffffffffffffffffff021916908373ffffffffffffffffffffffffffffffffffffffff1602179055505061011a565b600080fd5b600073ffffffffffffffffffffffffffffffffffffffff82169050919050565b60006100a88261007d565b9050919050565b60006100ba8261009d565b9050919050565b6100ca816100af565b81146100d557600080fd5b50565b6000815190506100e7816100c1565b92915050565b60006020828403121561010357610102610078565b5b6000610111848285016100d8565b91505092915050565b6107c8806101296000396000f3fe608060405234801561001057600080fd5b50600436106100365760003560e01c806337b6d96b1461003b5780638c6ea2791461006b575b600080fd5b6100556004803603810190610050919061024f565b610087565b6040516100629190610297565b60405180910390f35b6100856004803603810190610080919061042e565b61016e565b005b60008033905060008060008060008060009054906101000a900473ffffffffffffffffffffffffffffffffffffffff1673ffffffffffffffffffffffffffffffffffffffff1662d55318876040518263ffffffff1660e01b81526004016100ee919061050e565b600060405180830381865afa15801561010b573d6000803e3d6000fd5b505050506040513d6000823e3d601f19601f820116820180604052508101906101349190610619565b94509450945094509450878314801561014a5750805b1561015e5760019650505050505050610169565b600096505050505050505b919050565b60008054906101000a900473ffffffffffffffffffffffffffffffffffffffff1673ffffffffffffffffffffffffffffffffffffffff1663eb0f4f73858585856040518563ffffffff1660e01b81526004016101cd949392919061073f565b600060405180830381600087803b1580156101e757600080fd5b505af11580156101fb573d6000803e3d6000fd5b5050505050505050565b6000604051905090565b600080fd5b600080fd5b6000819050919050565b61022c81610219565b811461023757600080fd5b50565b60008135905061024981610223565b92915050565b6000602082840312156102655761026461020f565b5b60006102738482850161023a565b91505092915050565b60008115159050919050565b6102918161027c565b82525050565b60006020820190506102ac6000830184610288565b92915050565b600080fd5b600080fd5b6000601f19601f8301169050919050565b7f4e487b7100000000000000000000000000000000000000000000000000000000600052604160045260246000fd5b610305826102bc565b810181811067ffffffffffffffff82111715610324576103236102cd565b5b80604052505050565b6000610337610205565b905061034382826102fc565b919050565b600067ffffffffffffffff821115610363576103626102cd565b5b61036c826102bc565b9050602081019050919050565b82818337600083830152505050565b600061039b61039684610348565b61032d565b9050828152602081018484840111156103b7576103b66102b7565b5b6103c2848285610379565b509392505050565b600082601f8301126103df576103de6102b2565b5b81356103ef848260208601610388565b91505092915050565b6000819050919050565b61040b816103f8565b811461041657600080fd5b50565b60008135905061042881610402565b92915050565b600080600080608085870312156104485761044761020f565b5b600085013567ffffffffffffffff81111561046657610465610214565b5b610472878288016103ca565b945050602085013567ffffffffffffffff81111561049357610492610214565b5b61049f878288016103ca565b93505060406104b08782880161023a565b92505060606104c187828801610419565b91505092959194509250565b600073ffffffffffffffffffffffffffffffffffffffff82169050919050565b60006104f8826104cd565b9050919050565b610508816104ed565b82525050565b600060208201905061052360008301846104ff565b92915050565b60005b8381101561054757808201518184015260208101905061052c565b60008484015250505050565b600061056661056184610348565b61032d565b905082815260208101848484011115610582576105816102b7565b5b61058d848285610529565b509392505050565b600082601f8301126105aa576105a96102b2565b5b81516105ba848260208601610553565b91505092915050565b6000815190506105d281610223565b92915050565b6000815190506105e781610402565b92915050565b6105f68161027c565b811461060157600080fd5b50565b600081519050610613816105ed565b92915050565b600080600080600060a086880312156106355761063461020f565b5b600086015167ffffffffffffffff81111561065357610652610214565b5b61065f88828901610595565b955050602086015167ffffffffffffffff8111156106805761067f610214565b5b61068c88828901610595565b945050604061069d888289016105c3565b93505060606106ae888289016105d8565b92505060806106bf88828901610604565b9150509295509295909350565b600081519050919050565b600082825260208201905092915050565b60006106f3826106cc565b6106fd81856106d7565b935061070d818560208601610529565b610716816102bc565b840191505092915050565b61072a81610219565b82525050565b610739816103f8565b82525050565b6000608082019050818103600083015261075981876106e8565b9050818103602083015261076d81866106e8565b905061077c6040830185610721565b6107896060830184610730565b9594505050505056fea26469706673582212205e81818447bb2c3baa94e2b3e2583b78e02faf4cff877c80a4bdae3154f2161e64736f6c63430008130033",
  "linkReferences": {},
  "deployedLinkReferences": {}
}