{
  "_format": "hh-sol-artifact-1",
  "contractName": "DeviceAddition",
  "sourceName": "contracts/DeviceAddition.sol",
  "abi": [
    {
      "inputs": [
        {
          "internalType": "string",
          "name": "_brand",
          "type": "string"
        },
        {
          "internalType": "string",
          "name": "_model",
          "type": "string"
        },
        {
          "internalType": "uint256",
          "name": "_imeiNumber",
          "type": "uint256"
        },
        {
          "internalType": "bytes32",
          "name": "_encryptedSeedPhrase",
          "type": "bytes32"
        }
      ],
      "name": "addDevice",
      "outputs": [],
      "stateMutability": "nonpayable",
      "type": "function"
    },
    {
      "inputs": [
        {
          "internalType": "uint256",
          "name": "",
          "type": "uint256"
        }
      ],
      "name": "devices",
      "outputs": [
        {
          "internalType": "bytes32",
          "name": "",
          "type": "bytes32"
        }
      ],
      "stateMutability": "view",
      "type": "function"
    },
    {
      "inputs": [],
      "name": "getDevices",
      "outputs": [
        {
          "internalType": "bytes32[]",
          "name": "",
          "type": "bytes32[]"
        }
      ],
      "stateMutability": "view",
      "type": "function"
    }
  ],
  "bytecode": "0x608060405234801561001057600080fd5b50610694806100206000396000f3fe608060405234801561001057600080fd5b50600436106100415760003560e01c806310ff8e3114610046578063d611d6c814610076578063eb0f4f7314610094575b600080fd5b610060600480360381019061005b91906101fc565b6100b0565b60405161006d9190610242565b60405180910390f35b61007e6100d4565b60405161008b919061031b565b60405180910390f35b6100ae60048036038101906100a991906104af565b61012c565b005b600081815481106100c057600080fd5b906000526020600020016000915090505481565b6060600080548060200260200160405190810160405280929190818152602001828054801561012257602002820191906000526020600020905b81548152602001906001019080831161010e575b5050505050905090565b6000848484846040516020016101459493929190610601565b60405160208183030381529060405290506000816040516020016101699190610647565b6040516020818303038152906040528051906020012090506000819080600181540180825580915050600190039060005260206000200160009091909190915055505050505050565b6000604051905090565b600080fd5b600080fd5b6000819050919050565b6101d9816101c6565b81146101e457600080fd5b50565b6000813590506101f6816101d0565b92915050565b600060208284031215610212576102116101bc565b5b6000610220848285016101e7565b91505092915050565b6000819050919050565b61023c81610229565b82525050565b60006020820190506102576000830184610233565b92915050565b600081519050919050565b600082825260208201905092915050565b6000819050602082019050919050565b61029281610229565b82525050565b60006102a48383610289565b60208301905092915050565b6000602082019050919050565b60006102c88261025d565b6102d28185610268565b93506102dd83610279565b8060005b8381101561030e5781516102f58882610298565b9750610300836102b0565b9250506001810190506102e1565b5085935050505092915050565b6000602082019050818103600083015261033581846102bd565b905092915050565b600080fd5b600080fd5b6000601f19601f8301169050919050565b7f4e487b7100000000000000000000000000000000000000000000000000000000600052604160045260246000fd5b61039082610347565b810181811067ffffffffffffffff821117156103af576103ae610358565b5b80604052505050565b60006103c26101b2565b90506103ce8282610387565b919050565b600067ffffffffffffffff8211156103ee576103ed610358565b5b6103f782610347565b9050602081019050919050565b82818337600083830152505050565b6000610426610421846103d3565b6103b8565b90508281526020810184848401111561044257610441610342565b5b61044d848285610404565b509392505050565b600082601f83011261046a5761046961033d565b5b813561047a848260208601610413565b91505092915050565b61048c81610229565b811461049757600080fd5b50565b6000813590506104a981610483565b92915050565b600080600080608085870312156104c9576104c86101bc565b5b600085013567ffffffffffffffff8111156104e7576104e66101c1565b5b6104f387828801610455565b945050602085013567ffffffffffffffff811115610514576105136101c1565b5b61052087828801610455565b9350506040610531878288016101e7565b92505060606105428782880161049a565b91505092959194509250565b600081519050919050565b600081905092915050565b60005b83811015610582578082015181840152602081019050610567565b60008484015250505050565b60006105998261054e565b6105a38185610559565b93506105b3818560208601610564565b80840191505092915050565b6000819050919050565b6105da6105d5826101c6565b6105bf565b82525050565b6000819050919050565b6105fb6105f682610229565b6105e0565b82525050565b600061060d828761058e565b9150610619828661058e565b915061062582856105c9565b60208201915061063582846105ea565b60208201915081905095945050505050565b6000610653828461058e565b91508190509291505056fea2646970667358221220ee14c7aeb55d5039d8194d5ee5935b83549cd4c88cc61463c5db76793069f7d864736f6c63430008130033",
  "linkReferences": {},
  "deployedLinkReferences": {}
}