{
    "_format": "hh-sol-artifact-1",
    "contractName": "ImeiCheck",
    "sourceName": "contracts/ImeiCheck.sol",
    "abi": [
        {
            "inputs": [
                {
                    "internalType": "address[]",
                    "name": "_authorizedWalletIds",
                    "type": "address[]"
                }
            ],
            "stateMutability": "nonpayable",
            "type": "constructor"
        },
        {
            "inputs": [
                {
                    "internalType": "string",
                    "name": "_brand",
                    "type": "string"
                },
                {
                    "internalType": "string",
                    "name": "_model",
                    "type": "string"
                },
                {
                    "internalType": "uint256",
                    "name": "_imeiNumber",
                    "type": "uint256"
                },
                {
                    "internalType": "bytes32",
                    "name": "_encryptedSeedPhrase",
                    "type": "bytes32"
                }
            ],
            "name": "addDevice",
            "outputs": [],
            "stateMutability": "nonpayable",
            "type": "function"
        },
        {
            "inputs": [
                {
                    "internalType": "uint256",
                    "name": "_imeiNumber",
                    "type": "uint256"
                }
            ],
            "name": "getDeviceActivationTimestamp",
            "outputs": [
                {
                    "internalType": "uint256",
                    "name": "activationTimestamp",
                    "type": "uint256"
                }
            ],
            "stateMutability": "view",
            "type": "function"
        },
        {
            "inputs": [
                {
                    "internalType": "uint256",
                    "name": "_imeiNumber",
                    "type": "uint256"
                },
                {
                    "internalType": "bytes32",
                    "name": "_seedPhrase",
                    "type": "bytes32"
                }
            ],
            "name": "verifyDevice",
            "outputs": [
                {
                    "internalType": "bool",
                    "name": "success",
                    "type": "bool"
                },
                {
                    "internalType": "string",
                    "name": "brand",
                    "type": "string"
                },
                {
                    "internalType": "string",
                    "name": "model",
                    "type": "string"
                }
            ],
            "stateMutability": "nonpayable",
            "type": "function"
        }
    ],
    "bytecode": "0x60806040523480156200001157600080fd5b50604051620010cd380380620010cd8339818101604052810190620000379190620002f3565b80600090805190602001906200004f92919062000057565b505062000344565b828054828255906000526020600020908101928215620000d3579160200282015b82811115620000d25782518260006101000a81548173ffffffffffffffffffffffffffffffffffffffff021916908373ffffffffffffffffffffffffffffffffffffffff1602179055509160200191906001019062000078565b5b509050620000e29190620000e6565b5090565b5b8082111562000101576000816000905550600101620000e7565b5090565b6000604051905090565b600080fd5b600080fd5b600080fd5b6000601f19601f8301169050919050565b7f4e487b7100000000000000000000000000000000000000000000000000000000600052604160045260246000fd5b62000169826200011e565b810181811067ffffffffffffffff821117156200018b576200018a6200012f565b5b80604052505050565b6000620001a062000105565b9050620001ae82826200015e565b919050565b600067ffffffffffffffff821115620001d157620001d06200012f565b5b602082029050602081019050919050565b600080fd5b600073ffffffffffffffffffffffffffffffffffffffff82169050919050565b60006200021482620001e7565b9050919050565b620002268162000207565b81146200023257600080fd5b50565b60008151905062000246816200021b565b92915050565b6000620002636200025d84620001b3565b62000194565b90508083825260208201905060208402830185811115620002895762000288620001e2565b5b835b81811015620002b65780620002a1888262000235565b8452602084019350506020810190506200028b565b5050509392505050565b600082601f830112620002d857620002d762000119565b5b8151620002ea8482602086016200024c565b91505092915050565b6000602082840312156200030c576200030b6200010f565b5b600082015167ffffffffffffffff8111156200032d576200032c62000114565b5b6200033b84828501620002c0565b91505092915050565b610d7980620003546000396000f3fe608060405234801561001057600080fd5b50600436106100415760003560e01c80630bff442f146100465780630d30f7ee14610076578063eb0f4f73146100a8575b600080fd5b610060600480360381019061005b91906104f4565b6100c4565b60405161006d9190610530565b60405180910390f35b610090600480360381019061008b9190610581565b6100e4565b60405161009f9392919061066c565b60405180910390f35b6100c260048036038101906100bd91906107e6565b610313565b005b600060016000838152602001908152602001600020600501549050919050565b600060608060006001600087815260200190815260200160002090508060040160009054906101000a900460ff1615610152576040517f08c379a0000000000000000000000000000000000000000000000000000000008152600401610149906108d1565b60405180910390fd5b8060030154856040516020016101689190610912565b60405160208183030381529060405280519060200120036102dc5760018160040160006101000a81548160ff021916908315150217905550428160050181905550600181600001826001018180546101bf9061095c565b80601f01602080910402602001604051908101604052809291908181526020018280546101eb9061095c565b80156102385780601f1061020d57610100808354040283529160200191610238565b820191906000526020600020905b81548152906001019060200180831161021b57829003601f168201915b5050505050915080805461024b9061095c565b80601f01602080910402602001604051908101604052809291908181526020018280546102779061095c565b80156102c45780601f10610299576101008083540402835291602001916102c4565b820191906000526020600020905b8154815290600101906020018083116102a757829003601f168201915b5050505050905080945081955082965050505061030b565b600060405180602001604052806000815250604051806020016040528060008152508094508195508296505050505b509250925092565b6000805b6000805490508110156103b157600081815481106103385761033761098d565b5b9060005260206000200160009054906101000a900473ffffffffffffffffffffffffffffffffffffffff1673ffffffffffffffffffffffffffffffffffffffff163373ffffffffffffffffffffffffffffffffffffffff160361039e57600191506103b1565b80806103a9906109eb565b915050610317565b50806103f2576040517f08c379a00000000000000000000000000000000000000000000000000000000081526004016103e990610aa5565b60405180910390fd5b6040518060c00160405280868152602001858152602001848152602001838152602001600015158152602001600081525060016000858152602001908152602001600020600082015181600001908161044b9190610c71565b5060208201518160010190816104619190610c71565b50604082015181600201556060820151816003015560808201518160040160006101000a81548160ff02191690831515021790555060a082015181600501559050505050505050565b6000604051905090565b600080fd5b600080fd5b6000819050919050565b6104d1816104be565b81146104dc57600080fd5b50565b6000813590506104ee816104c8565b92915050565b60006020828403121561050a576105096104b4565b5b6000610518848285016104df565b91505092915050565b61052a816104be565b82525050565b60006020820190506105456000830184610521565b92915050565b6000819050919050565b61055e8161054b565b811461056957600080fd5b50565b60008135905061057b81610555565b92915050565b60008060408385031215610598576105976104b4565b5b60006105a6858286016104df565b92505060206105b78582860161056c565b9150509250929050565b60008115159050919050565b6105d6816105c1565b82525050565b600081519050919050565b600082825260208201905092915050565b60005b838110156106165780820151818401526020810190506105fb565b60008484015250505050565b6000601f19601f8301169050919050565b600061063e826105dc565b61064881856105e7565b93506106588185602086016105f8565b61066181610622565b840191505092915050565b600060608201905061068160008301866105cd565b81810360208301526106938185610633565b905081810360408301526106a78184610633565b9050949350505050565b600080fd5b600080fd5b7f4e487b7100000000000000000000000000000000000000000000000000000000600052604160045260246000fd5b6106f382610622565b810181811067ffffffffffffffff82111715610712576107116106bb565b5b80604052505050565b60006107256104aa565b905061073182826106ea565b919050565b600067ffffffffffffffff821115610751576107506106bb565b5b61075a82610622565b9050602081019050919050565b82818337600083830152505050565b600061078961078484610736565b61071b565b9050828152602081018484840111156107a5576107a46106b6565b5b6107b0848285610767565b509392505050565b600082601f8301126107cd576107cc6106b1565b5b81356107dd848260208601610776565b91505092915050565b60008060008060808587031215610800576107ff6104b4565b5b600085013567ffffffffffffffff81111561081e5761081d6104b9565b5b61082a878288016107b8565b945050602085013567ffffffffffffffff81111561084b5761084a6104b9565b5b610857878288016107b8565b9350506040610868878288016104df565b92505060606108798782880161056c565b91505092959194509250565b7f4465766963652068617320616c7265616479206265656e207665726966696564600082015250565b60006108bb6020836105e7565b91506108c682610885565b602082019050919050565b600060208201905081810360008301526108ea816108ae565b9050919050565b6000819050919050565b61090c6109078261054b565b6108f1565b82525050565b600061091e82846108fb565b60208201915081905092915050565b7f4e487b7100000000000000000000000000000000000000000000000000000000600052602260045260246000fd5b6000600282049050600182168061097457607f821691505b6020821081036109875761098661092d565b5b50919050565b7f4e487b7100000000000000000000000000000000000000000000000000000000600052603260045260246000fd5b7f4e487b7100000000000000000000000000000000000000000000000000000000600052601160045260246000fd5b60006109f6826104be565b91507fffffffffffffffffffffffffffffffffffffffffffffffffffffffffffffffff8203610a2857610a276109bc565b5b600182019050919050565b7f4f6e6c7920617574686f72697a65642077616c6c6574732063616e206164642060008201527f6465766963657300000000000000000000000000000000000000000000000000602082015250565b6000610a8f6027836105e7565b9150610a9a82610a33565b604082019050919050565b60006020820190508181036000830152610abe81610a82565b9050919050565b60008190508160005260206000209050919050565b60006020601f8301049050919050565b600082821b905092915050565b600060088302610b277fffffffffffffffffffffffffffffffffffffffffffffffffffffffffffffffff82610aea565b610b318683610aea565b95508019841693508086168417925050509392505050565b6000819050919050565b6000610b6e610b69610b64846104be565b610b49565b6104be565b9050919050565b6000819050919050565b610b8883610b53565b610b9c610b9482610b75565b848454610af7565b825550505050565b600090565b610bb1610ba4565b610bbc818484610b7f565b505050565b5b81811015610be057610bd5600082610ba9565b600181019050610bc2565b5050565b601f821115610c2557610bf681610ac5565b610bff84610ada565b81016020851015610c0e578190505b610c22610c1a85610ada565b830182610bc1565b50505b505050565b600082821c905092915050565b6000610c4860001984600802610c2a565b1980831691505092915050565b6000610c618383610c37565b9150826002028217905092915050565b610c7a826105dc565b67ffffffffffffffff811115610c9357610c926106bb565b5b610c9d825461095c565b610ca8828285610be4565b600060209050601f831160018114610cdb5760008415610cc9578287015190505b610cd38582610c55565b865550610d3b565b601f198416610ce986610ac5565b60005b82811015610d1157848901518255600182019150602085019450602081019050610cec565b86831015610d2e5784890151610d2a601f891682610c37565b8355505b6001600288020188555050505b50505050505056fea2646970667358221220c7ea5004c459bb8d4711c67c6332d8dc5ef876bbdd6088c991cced72b831366464736f6c63430008130033",
    "linkReferences": {},
    "deployedLinkReferences": {}
}