{
  "_format": "hh-sol-artifact-1",
  "contractName": "ImeiCheckUpdated",
  "sourceName": "contracts/ImeiCheckUpdated.sol",
  "abi": [
    {
      "inputs": [
        {
          "internalType": "address[]",
          "name": "_authorizedWalletIds",
          "type": "address[]"
        }
      ],
      "stateMutability": "nonpayable",
      "type": "constructor"
    },
    {
      "inputs": [
        {
          "internalType": "string",
          "name": "_brand",
          "type": "string"
        },
        {
          "internalType": "string",
          "name": "_model",
          "type": "string"
        },
        {
          "internalType": "uint256",
          "name": "_imeiNumber",
          "type": "uint256"
        },
        {
          "internalType": "bytes32",
          "name": "_encryptedSeedPhrase",
          "type": "bytes32"
        }
      ],
      "name": "addDevice",
      "outputs": [],
      "stateMutability": "nonpayable",
      "type": "function"
    },
    {
      "inputs": [
        {
          "internalType": "uint256",
          "name": "_imeiNumber",
          "type": "uint256"
        }
      ],
      "name": "getDeviceActivationTimestamp",
      "outputs": [
        {
          "internalType": "uint256",
          "name": "activationTimestamp",
          "type": "uint256"
        }
      ],
      "stateMutability": "view",
      "type": "function"
    },
    {
      "inputs": [
        {
          "internalType": "uint256",
          "name": "_imeiNumber",
          "type": "uint256"
        }
      ],
      "name": "isVerified",
      "outputs": [
        {
          "internalType": "bool",
          "name": "",
          "type": "bool"
        }
      ],
      "stateMutability": "view",
      "type": "function"
    },
    {
      "inputs": [
        {
          "internalType": "uint256",
          "name": "_imeiNumber",
          "type": "uint256"
        },
        {
          "internalType": "bytes32",
          "name": "_seedPhrase",
          "type": "bytes32"
        }
      ],
      "name": "verifyDevice",
      "outputs": [
        {
          "internalType": "bool",
          "name": "success",
          "type": "bool"
        },
        {
          "internalType": "string",
          "name": "brand",
          "type": "string"
        },
        {
          "internalType": "string",
          "name": "model",
          "type": "string"
        }
      ],
      "stateMutability": "nonpayable",
      "type": "function"
    }
  ],
  "bytecode": "0x60806040523480156200001157600080fd5b506040516200132d3803806200132d8339818101604052810190620000379190620002f3565b80600090805190602001906200004f92919062000057565b505062000344565b828054828255906000526020600020908101928215620000d3579160200282015b82811115620000d25782518260006101000a81548173ffffffffffffffffffffffffffffffffffffffff021916908373ffffffffffffffffffffffffffffffffffffffff1602179055509160200191906001019062000078565b5b509050620000e29190620000e6565b5090565b5b8082111562000101576000816000905550600101620000e7565b5090565b6000604051905090565b600080fd5b600080fd5b600080fd5b6000601f19601f8301169050919050565b7f4e487b7100000000000000000000000000000000000000000000000000000000600052604160045260246000fd5b62000169826200011e565b810181811067ffffffffffffffff821117156200018b576200018a6200012f565b5b80604052505050565b6000620001a062000105565b9050620001ae82826200015e565b919050565b600067ffffffffffffffff821115620001d157620001d06200012f565b5b602082029050602081019050919050565b600080fd5b600073ffffffffffffffffffffffffffffffffffffffff82169050919050565b60006200021482620001e7565b9050919050565b620002268162000207565b81146200023257600080fd5b50565b60008151905062000246816200021b565b92915050565b6000620002636200025d84620001b3565b62000194565b90508083825260208201905060208402830185811115620002895762000288620001e2565b5b835b81811015620002b65780620002a1888262000235565b8452602084019350506020810190506200028b565b5050509392505050565b600082601f830112620002d857620002d762000119565b5b8151620002ea8482602086016200024c565b91505092915050565b6000602082840312156200030c576200030b6200010f565b5b600082015167ffffffffffffffff8111156200032d576200032c62000114565b5b6200033b84828501620002c0565b91505092915050565b610fd980620003546000396000f3fe608060405234801561001057600080fd5b506004361061004c5760003560e01c80630bff442f146100515780630d30f7ee1461008157806337b6d96b146100b3578063eb0f4f73146100e3575b600080fd5b61006b6004803603810190610066919061063f565b6100ff565b604051610078919061067b565b60405180910390f35b61009b600480360381019061009691906106cc565b61011f565b6040516100aa939291906107b7565b60405180910390f35b6100cd60048036038101906100c8919061063f565b610409565b6040516100da91906107fc565b60405180910390f35b6100fd60048036038101906100f8919061094c565b61045e565b005b600060016000838152602001908152602001600020600501549050919050565b600060608060006001600087815260200190815260200160002090508060040160009054906101000a900460ff161561018d576040517f08c379a000000000000000000000000000000000000000000000000000000000815260040161018490610a37565b60405180910390fd5b600086866040516020016101a2929190610a99565b6040516020818303038152906040528051906020012090506002600082815260200190815260200160002060009054906101000a900460ff161561021b576040517f08c379a000000000000000000000000000000000000000000000000000000000815260040161021290610b37565b60405180910390fd5b8160030154866040516020016102319190610b57565b60405160208183030381529060405280519060200120036103d15760018260040160006101000a81548160ff02191690831515021790555042826005018190555060016002600083815260200190815260200160002060006101000a81548160ff021916908315150217905550600182600001836001018180546102b490610ba1565b80601f01602080910402602001604051908101604052809291908181526020018280546102e090610ba1565b801561032d5780601f106103025761010080835404028352916020019161032d565b820191906000526020600020905b81548152906001019060200180831161031057829003601f168201915b5050505050915080805461034090610ba1565b80601f016020809104026020016040519081016040528092919081815260200182805461036c90610ba1565b80156103b95780601f1061038e576101008083540402835291602001916103b9565b820191906000526020600020905b81548152906001019060200180831161039c57829003601f168201915b50505050509050809550819650829750505050610400565b600060405180602001604052806000815250604051806020016040528060008152508095508196508297505050505b50509250925092565b6000808260405160200161041d9190610bd2565b6040516020818303038152906040528051906020012090506002600082815260200190815260200160002060009054906101000a900460ff16915050919050565b6000805b6000805490508110156104fc576000818154811061048357610482610bed565b5b9060005260206000200160009054906101000a900473ffffffffffffffffffffffffffffffffffffffff1673ffffffffffffffffffffffffffffffffffffffff163373ffffffffffffffffffffffffffffffffffffffff16036104e957600191506104fc565b80806104f490610c4b565b915050610462565b508061053d576040517f08c379a000000000000000000000000000000000000000000000000000000000815260040161053490610d05565b60405180910390fd5b6040518060c0016040528086815260200185815260200184815260200183815260200160001515815260200160008152506001600085815260200190815260200160002060008201518160000190816105969190610ed1565b5060208201518160010190816105ac9190610ed1565b50604082015181600201556060820151816003015560808201518160040160006101000a81548160ff02191690831515021790555060a082015181600501559050505050505050565b6000604051905090565b600080fd5b600080fd5b6000819050919050565b61061c81610609565b811461062757600080fd5b50565b60008135905061063981610613565b92915050565b600060208284031215610655576106546105ff565b5b60006106638482850161062a565b91505092915050565b61067581610609565b82525050565b6000602082019050610690600083018461066c565b92915050565b6000819050919050565b6106a981610696565b81146106b457600080fd5b50565b6000813590506106c6816106a0565b92915050565b600080604083850312156106e3576106e26105ff565b5b60006106f18582860161062a565b9250506020610702858286016106b7565b9150509250929050565b60008115159050919050565b6107218161070c565b82525050565b600081519050919050565b600082825260208201905092915050565b60005b83811015610761578082015181840152602081019050610746565b60008484015250505050565b6000601f19601f8301169050919050565b600061078982610727565b6107938185610732565b93506107a3818560208601610743565b6107ac8161076d565b840191505092915050565b60006060820190506107cc6000830186610718565b81810360208301526107de818561077e565b905081810360408301526107f2818461077e565b9050949350505050565b60006020820190506108116000830184610718565b92915050565b600080fd5b600080fd5b7f4e487b7100000000000000000000000000000000000000000000000000000000600052604160045260246000fd5b6108598261076d565b810181811067ffffffffffffffff8211171561087857610877610821565b5b80604052505050565b600061088b6105f5565b90506108978282610850565b919050565b600067ffffffffffffffff8211156108b7576108b6610821565b5b6108c08261076d565b9050602081019050919050565b82818337600083830152505050565b60006108ef6108ea8461089c565b610881565b90508281526020810184848401111561090b5761090a61081c565b5b6109168482856108cd565b509392505050565b600082601f83011261093357610932610817565b5b81356109438482602086016108dc565b91505092915050565b60008060008060808587031215610966576109656105ff565b5b600085013567ffffffffffffffff81111561098457610983610604565b5b6109908782880161091e565b945050602085013567ffffffffffffffff8111156109b1576109b0610604565b5b6109bd8782880161091e565b93505060406109ce8782880161062a565b92505060606109df878288016106b7565b91505092959194509250565b7f4465766963652068617320616c7265616479206265656e207665726966696564600082015250565b6000610a21602083610732565b9150610a2c826109eb565b602082019050919050565b60006020820190508181036000830152610a5081610a14565b9050919050565b6000819050919050565b610a72610a6d82610609565b610a57565b82525050565b6000819050919050565b610a93610a8e82610696565b610a78565b82525050565b6000610aa58285610a61565b602082019150610ab58284610a82565b6020820191508190509392505050565b7f53656564207068726173652068617320616c7265616479206265656e2075736560008201527f6420666f72207468697320494d45490000000000000000000000000000000000602082015250565b6000610b21602f83610732565b9150610b2c82610ac5565b604082019050919050565b60006020820190508181036000830152610b5081610b14565b9050919050565b6000610b638284610a82565b60208201915081905092915050565b7f4e487b7100000000000000000000000000000000000000000000000000000000600052602260045260246000fd5b60006002820490506001821680610bb957607f821691505b602082108103610bcc57610bcb610b72565b5b50919050565b6000610bde8284610a61565b60208201915081905092915050565b7f4e487b7100000000000000000000000000000000000000000000000000000000600052603260045260246000fd5b7f4e487b7100000000000000000000000000000000000000000000000000000000600052601160045260246000fd5b6000610c5682610609565b91507fffffffffffffffffffffffffffffffffffffffffffffffffffffffffffffffff8203610c8857610c87610c1c565b5b600182019050919050565b7f4f6e6c7920617574686f72697a65642077616c6c6574732063616e206164642060008201527f6465766963657300000000000000000000000000000000000000000000000000602082015250565b6000610cef602783610732565b9150610cfa82610c93565b604082019050919050565b60006020820190508181036000830152610d1e81610ce2565b9050919050565b60008190508160005260206000209050919050565b60006020601f8301049050919050565b600082821b905092915050565b600060088302610d877fffffffffffffffffffffffffffffffffffffffffffffffffffffffffffffffff82610d4a565b610d918683610d4a565b95508019841693508086168417925050509392505050565b6000819050919050565b6000610dce610dc9610dc484610609565b610da9565b610609565b9050919050565b6000819050919050565b610de883610db3565b610dfc610df482610dd5565b848454610d57565b825550505050565b600090565b610e11610e04565b610e1c818484610ddf565b505050565b5b81811015610e4057610e35600082610e09565b600181019050610e22565b5050565b601f821115610e8557610e5681610d25565b610e5f84610d3a565b81016020851015610e6e578190505b610e82610e7a85610d3a565b830182610e21565b50505b505050565b600082821c905092915050565b6000610ea860001984600802610e8a565b1980831691505092915050565b6000610ec18383610e97565b9150826002028217905092915050565b610eda82610727565b67ffffffffffffffff811115610ef357610ef2610821565b5b610efd8254610ba1565b610f08828285610e44565b600060209050601f831160018114610f3b5760008415610f29578287015190505b610f338582610eb5565b865550610f9b565b601f198416610f4986610d25565b60005b82811015610f7157848901518255600182019150602085019450602081019050610f4c565b86831015610f8e5784890151610f8a601f891682610e97565b8355505b6001600288020188555050505b50505050505056fea2646970667358221220daa01a66c2904cd23bea33b49c3132d035e18950bc680ac243e7a7b5ac5df88c64736f6c63430008130033",
  "linkReferences": {},
  "deployedLinkReferences": {}
}