{
  "_format": "hh-sol-artifact-1",
  "contractName": "SecondaryContract",
  "sourceName": "contracts/SecondaryContract.sol",
  "abi": [
    {
      "inputs": [
        {
          "internalType": "address",
          "name": "_deviceAdditionContractAddress",
          "type": "address"
        }
      ],
      "stateMutability": "nonpayable",
      "type": "constructor"
    },
    {
      "inputs": [
        {
          "internalType": "string",
          "name": "_brand",
          "type": "string"
        },
        {
          "internalType": "string",
          "name": "_model",
          "type": "string"
        },
        {
          "internalType": "uint256",
          "name": "_imeiNumber",
          "type": "uint256"
        },
        {
          "internalType": "bytes32",
          "name": "_encryptedSeedPhrase",
          "type": "bytes32"
        }
      ],
      "name": "addDevice",
      "outputs": [],
      "stateMutability": "nonpayable",
      "type": "function"
    },
    {
      "inputs": [],
      "name": "getDevices",
      "outputs": [
        {
          "internalType": "bytes32[]",
          "name": "",
          "type": "bytes32[]"
        }
      ],
      "stateMutability": "view",
      "type": "function"
    }
  ],
  "bytecode": "0x608060405234801561001057600080fd5b5060405161084f38038061084f833981810160405281019061003291906100db565b806000806101000a81548173ffffffffffffffffffffffffffffffffffffffff021916908373ffffffffffffffffffffffffffffffffffffffff16021790555050610108565b600080fd5b600073ffffffffffffffffffffffffffffffffffffffff82169050919050565b60006100a88261007d565b9050919050565b6100b88161009d565b81146100c357600080fd5b50565b6000815190506100d5816100af565b92915050565b6000602082840312156100f1576100f0610078565b5b60006100ff848285016100c6565b91505092915050565b610738806101176000396000f3fe608060405234801561001057600080fd5b50600436106100365760003560e01c8063d611d6c81461003b578063eb0f4f7314610059575b600080fd5b610043610075565b604051610050919061026f565b60405180910390f35b610073600480360381019061006e919061044d565b610110565b005b606060008054906101000a900473ffffffffffffffffffffffffffffffffffffffff1673ffffffffffffffffffffffffffffffffffffffff1663d611d6c86040518163ffffffff1660e01b8152600401600060405180830381865afa1580156100e2573d6000803e3d6000fd5b505050506040513d6000823e3d601f19601f8201168201806040525081019061010b91906105c9565b905090565b60008054906101000a900473ffffffffffffffffffffffffffffffffffffffff1673ffffffffffffffffffffffffffffffffffffffff1663eb0f4f73858585856040518563ffffffff1660e01b815260040161016f94939291906106af565b600060405180830381600087803b15801561018957600080fd5b505af115801561019d573d6000803e3d6000fd5b5050505050505050565b600081519050919050565b600082825260208201905092915050565b6000819050602082019050919050565b6000819050919050565b6101e6816101d3565b82525050565b60006101f883836101dd565b60208301905092915050565b6000602082019050919050565b600061021c826101a7565b61022681856101b2565b9350610231836101c3565b8060005b8381101561026257815161024988826101ec565b975061025483610204565b925050600181019050610235565b5085935050505092915050565b600060208201905081810360008301526102898184610211565b905092915050565b6000604051905090565b600080fd5b600080fd5b600080fd5b600080fd5b6000601f19601f8301169050919050565b7f4e487b7100000000000000000000000000000000000000000000000000000000600052604160045260246000fd5b6102f8826102af565b810181811067ffffffffffffffff82111715610317576103166102c0565b5b80604052505050565b600061032a610291565b905061033682826102ef565b919050565b600067ffffffffffffffff821115610356576103556102c0565b5b61035f826102af565b9050602081019050919050565b82818337600083830152505050565b600061038e6103898461033b565b610320565b9050828152602081018484840111156103aa576103a96102aa565b5b6103b584828561036c565b509392505050565b600082601f8301126103d2576103d16102a5565b5b81356103e284826020860161037b565b91505092915050565b6000819050919050565b6103fe816103eb565b811461040957600080fd5b50565b60008135905061041b816103f5565b92915050565b61042a816101d3565b811461043557600080fd5b50565b60008135905061044781610421565b92915050565b600080600080608085870312156104675761046661029b565b5b600085013567ffffffffffffffff811115610485576104846102a0565b5b610491878288016103bd565b945050602085013567ffffffffffffffff8111156104b2576104b16102a0565b5b6104be878288016103bd565b93505060406104cf8782880161040c565b92505060606104e087828801610438565b91505092959194509250565b600067ffffffffffffffff821115610507576105066102c0565b5b602082029050602081019050919050565b600080fd5b60008151905061052c81610421565b92915050565b6000610545610540846104ec565b610320565b9050808382526020820190506020840283018581111561056857610567610518565b5b835b81811015610591578061057d888261051d565b84526020840193505060208101905061056a565b5050509392505050565b600082601f8301126105b0576105af6102a5565b5b81516105c0848260208601610532565b91505092915050565b6000602082840312156105df576105de61029b565b5b600082015167ffffffffffffffff8111156105fd576105fc6102a0565b5b6106098482850161059b565b91505092915050565b600081519050919050565b600082825260208201905092915050565b60005b8381101561064c578082015181840152602081019050610631565b60008484015250505050565b600061066382610612565b61066d818561061d565b935061067d81856020860161062e565b610686816102af565b840191505092915050565b61069a816103eb565b82525050565b6106a9816101d3565b82525050565b600060808201905081810360008301526106c98187610658565b905081810360208301526106dd8186610658565b90506106ec6040830185610691565b6106f960608301846106a0565b9594505050505056fea2646970667358221220a84c83b3921db3185700220f385dce3e638a4a3e56797523972e13f22be7d2d464736f6c63430008130033",
  "linkReferences": {},
  "deployedLinkReferences": {}
}