{
  "_format": "hh-sol-artifact-1",
  "contractName": "ImeiCheckUpdated2",
  "sourceName": "contracts/ImeiCheckUpdated2.sol",
  "abi": [
    {
      "inputs": [
        {
          "internalType": "address[]",
          "name": "_authorizedWalletIds",
          "type": "address[]"
        }
      ],
      "stateMutability": "nonpayable",
      "type": "constructor"
    },
    {
      "inputs": [
        {
          "internalType": "string",
          "name": "_brand",
          "type": "string"
        },
        {
          "internalType": "string",
          "name": "_model",
          "type": "string"
        },
        {
          "internalType": "uint256",
          "name": "_imeiNumber",
          "type": "uint256"
        },
        {
          "internalType": "bytes32",
          "name": "_encryptedSeedPhrase",
          "type": "bytes32"
        }
      ],
      "name": "addDevice",
      "outputs": [],
      "stateMutability": "nonpayable",
      "type": "function"
    },
    {
      "inputs": [
        {
          "internalType": "uint256",
          "name": "_imeiNumber",
          "type": "uint256"
        }
      ],
      "name": "getDeviceActivationTimestamp",
      "outputs": [
        {
          "internalType": "uint256",
          "name": "activationTimestamp",
          "type": "uint256"
        }
      ],
      "stateMutability": "view",
      "type": "function"
    },
    {
      "inputs": [
        {
          "internalType": "uint256",
          "name": "_imeiNumber",
          "type": "uint256"
        }
      ],
      "name": "isVerified",
      "outputs": [
        {
          "internalType": "bool",
          "name": "",
          "type": "bool"
        }
      ],
      "stateMutability": "view",
      "type": "function"
    },
    {
      "inputs": [
        {
          "internalType": "uint256",
          "name": "_imeiNumber",
          "type": "uint256"
        },
        {
          "internalType": "bytes32",
          "name": "_seedPhrase",
          "type": "bytes32"
        }
      ],
      "name": "verifyDevice",
      "outputs": [
        {
          "internalType": "bool",
          "name": "success",
          "type": "bool"
        },
        {
          "internalType": "string",
          "name": "brand",
          "type": "string"
        },
        {
          "internalType": "string",
          "name": "model",
          "type": "string"
        }
      ],
      "stateMutability": "nonpayable",
      "type": "function"
    }
  ],
  "bytecode": "0x60806040523480156200001157600080fd5b50604051620012f7380380620012f78339818101604052810190620000379190620002f3565b80600090805190602001906200004f92919062000057565b505062000344565b828054828255906000526020600020908101928215620000d3579160200282015b82811115620000d25782518260006101000a81548173ffffffffffffffffffffffffffffffffffffffff021916908373ffffffffffffffffffffffffffffffffffffffff1602179055509160200191906001019062000078565b5b509050620000e29190620000e6565b5090565b5b8082111562000101576000816000905550600101620000e7565b5090565b6000604051905090565b600080fd5b600080fd5b600080fd5b6000601f19601f8301169050919050565b7f4e487b7100000000000000000000000000000000000000000000000000000000600052604160045260246000fd5b62000169826200011e565b810181811067ffffffffffffffff821117156200018b576200018a6200012f565b5b80604052505050565b6000620001a062000105565b9050620001ae82826200015e565b919050565b600067ffffffffffffffff821115620001d157620001d06200012f565b5b602082029050602081019050919050565b600080fd5b600073ffffffffffffffffffffffffffffffffffffffff82169050919050565b60006200021482620001e7565b9050919050565b620002268162000207565b81146200023257600080fd5b50565b60008151905062000246816200021b565b92915050565b6000620002636200025d84620001b3565b62000194565b90508083825260208201905060208402830185811115620002895762000288620001e2565b5b835b81811015620002b65780620002a1888262000235565b8452602084019350506020810190506200028b565b5050509392505050565b600082601f830112620002d857620002d762000119565b5b8151620002ea8482602086016200024c565b91505092915050565b6000602082840312156200030c576200030b6200010f565b5b600082015167ffffffffffffffff8111156200032d576200032c62000114565b5b6200033b84828501620002c0565b91505092915050565b610fa380620003546000396000f3fe608060405234801561001057600080fd5b506004361061004c5760003560e01c80630bff442f146100515780630d30f7ee1461008157806337b6d96b146100b3578063eb0f4f73146100e3575b600080fd5b61006b60048036038101906100669190610609565b6100ff565b6040516100789190610645565b60405180910390f35b61009b60048036038101906100969190610696565b61011f565b6040516100aa93929190610781565b60405180910390f35b6100cd60048036038101906100c89190610609565b6103d3565b6040516100da91906107c6565b60405180910390f35b6100fd60048036038101906100f89190610916565b610428565b005b600060016000838152602001908152602001600020600501549050919050565b600060608060006001600087815260200190815260200160002090508060040160009054906101000a900460ff161561018d576040517f08c379a000000000000000000000000000000000000000000000000000000000815260040161018490610a01565b60405180910390fd5b600086866040516020016101a2929190610a63565b6040516020818303038152906040528051906020012090506002600082815260200190815260200160002060009054906101000a900460ff161561021b576040517f08c379a000000000000000000000000000000000000000000000000000000000815260040161021290610b01565b60405180910390fd5b8160030154866040516020016102319190610b21565b60405160208183030381529060405280519060200120036103c55760018260040160006101000a81548160ff02191690831515021790555042826005018190555060016002600083815260200190815260200160002060006101000a81548160ff021916908315150217905550600194508160000180546102b190610b6b565b80601f01602080910402602001604051908101604052809291908181526020018280546102dd90610b6b565b801561032a5780601f106102ff5761010080835404028352916020019161032a565b820191906000526020600020905b81548152906001019060200180831161030d57829003601f168201915b5050505050935081600101805461034090610b6b565b80601f016020809104026020016040519081016040528092919081815260200182805461036c90610b6b565b80156103b95780601f1061038e576101008083540402835291602001916103b9565b820191906000526020600020905b81548152906001019060200180831161039c57829003601f168201915b505050505092506103ca565b600094505b50509250925092565b600080826040516020016103e79190610b9c565b6040516020818303038152906040528051906020012090506002600082815260200190815260200160002060009054906101000a900460ff16915050919050565b6000805b6000805490508110156104c6576000818154811061044d5761044c610bb7565b5b9060005260206000200160009054906101000a900473ffffffffffffffffffffffffffffffffffffffff1673ffffffffffffffffffffffffffffffffffffffff163373ffffffffffffffffffffffffffffffffffffffff16036104b357600191506104c6565b80806104be90610c15565b91505061042c565b5080610507576040517f08c379a00000000000000000000000000000000000000000000000000000000081526004016104fe90610ccf565b60405180910390fd5b6040518060c0016040528086815260200185815260200184815260200183815260200160001515815260200160008152506001600085815260200190815260200160002060008201518160000190816105609190610e9b565b5060208201518160010190816105769190610e9b565b50604082015181600201556060820151816003015560808201518160040160006101000a81548160ff02191690831515021790555060a082015181600501559050505050505050565b6000604051905090565b600080fd5b600080fd5b6000819050919050565b6105e6816105d3565b81146105f157600080fd5b50565b600081359050610603816105dd565b92915050565b60006020828403121561061f5761061e6105c9565b5b600061062d848285016105f4565b91505092915050565b61063f816105d3565b82525050565b600060208201905061065a6000830184610636565b92915050565b6000819050919050565b61067381610660565b811461067e57600080fd5b50565b6000813590506106908161066a565b92915050565b600080604083850312156106ad576106ac6105c9565b5b60006106bb858286016105f4565b92505060206106cc85828601610681565b9150509250929050565b60008115159050919050565b6106eb816106d6565b82525050565b600081519050919050565b600082825260208201905092915050565b60005b8381101561072b578082015181840152602081019050610710565b60008484015250505050565b6000601f19601f8301169050919050565b6000610753826106f1565b61075d81856106fc565b935061076d81856020860161070d565b61077681610737565b840191505092915050565b600060608201905061079660008301866106e2565b81810360208301526107a88185610748565b905081810360408301526107bc8184610748565b9050949350505050565b60006020820190506107db60008301846106e2565b92915050565b600080fd5b600080fd5b7f4e487b7100000000000000000000000000000000000000000000000000000000600052604160045260246000fd5b61082382610737565b810181811067ffffffffffffffff82111715610842576108416107eb565b5b80604052505050565b60006108556105bf565b9050610861828261081a565b919050565b600067ffffffffffffffff821115610881576108806107eb565b5b61088a82610737565b9050602081019050919050565b82818337600083830152505050565b60006108b96108b484610866565b61084b565b9050828152602081018484840111156108d5576108d46107e6565b5b6108e0848285610897565b509392505050565b600082601f8301126108fd576108fc6107e1565b5b813561090d8482602086016108a6565b91505092915050565b600080600080608085870312156109305761092f6105c9565b5b600085013567ffffffffffffffff81111561094e5761094d6105ce565b5b61095a878288016108e8565b945050602085013567ffffffffffffffff81111561097b5761097a6105ce565b5b610987878288016108e8565b9350506040610998878288016105f4565b92505060606109a987828801610681565b91505092959194509250565b7f4465766963652068617320616c7265616479206265656e207665726966696564600082015250565b60006109eb6020836106fc565b91506109f6826109b5565b602082019050919050565b60006020820190508181036000830152610a1a816109de565b9050919050565b6000819050919050565b610a3c610a37826105d3565b610a21565b82525050565b6000819050919050565b610a5d610a5882610660565b610a42565b82525050565b6000610a6f8285610a2b565b602082019150610a7f8284610a4c565b6020820191508190509392505050565b7f53656564207068726173652068617320616c7265616479206265656e2075736560008201527f6420666f72207468697320494d45490000000000000000000000000000000000602082015250565b6000610aeb602f836106fc565b9150610af682610a8f565b604082019050919050565b60006020820190508181036000830152610b1a81610ade565b9050919050565b6000610b2d8284610a4c565b60208201915081905092915050565b7f4e487b7100000000000000000000000000000000000000000000000000000000600052602260045260246000fd5b60006002820490506001821680610b8357607f821691505b602082108103610b9657610b95610b3c565b5b50919050565b6000610ba88284610a2b565b60208201915081905092915050565b7f4e487b7100000000000000000000000000000000000000000000000000000000600052603260045260246000fd5b7f4e487b7100000000000000000000000000000000000000000000000000000000600052601160045260246000fd5b6000610c20826105d3565b91507fffffffffffffffffffffffffffffffffffffffffffffffffffffffffffffffff8203610c5257610c51610be6565b5b600182019050919050565b7f4f6e6c7920617574686f72697a65642077616c6c6574732063616e206164642060008201527f6465766963657300000000000000000000000000000000000000000000000000602082015250565b6000610cb96027836106fc565b9150610cc482610c5d565b604082019050919050565b60006020820190508181036000830152610ce881610cac565b9050919050565b60008190508160005260206000209050919050565b60006020601f8301049050919050565b600082821b905092915050565b600060088302610d517fffffffffffffffffffffffffffffffffffffffffffffffffffffffffffffffff82610d14565b610d5b8683610d14565b95508019841693508086168417925050509392505050565b6000819050919050565b6000610d98610d93610d8e846105d3565b610d73565b6105d3565b9050919050565b6000819050919050565b610db283610d7d565b610dc6610dbe82610d9f565b848454610d21565b825550505050565b600090565b610ddb610dce565b610de6818484610da9565b505050565b5b81811015610e0a57610dff600082610dd3565b600181019050610dec565b5050565b601f821115610e4f57610e2081610cef565b610e2984610d04565b81016020851015610e38578190505b610e4c610e4485610d04565b830182610deb565b50505b505050565b600082821c905092915050565b6000610e7260001984600802610e54565b1980831691505092915050565b6000610e8b8383610e61565b9150826002028217905092915050565b610ea4826106f1565b67ffffffffffffffff811115610ebd57610ebc6107eb565b5b610ec78254610b6b565b610ed2828285610e0e565b600060209050601f831160018114610f055760008415610ef3578287015190505b610efd8582610e7f565b865550610f65565b601f198416610f1386610cef565b60005b82811015610f3b57848901518255600182019150602085019450602081019050610f16565b86831015610f585784890151610f54601f891682610e61565b8355505b6001600288020188555050505b50505050505056fea2646970667358221220dd34f334788726346eeabf0b48c6deeb684ed08a268ea7c1efd7eccbb591016e64736f6c63430008130033",
  "linkReferences": {},
  "deployedLinkReferences": {}
}